:100000000C9463000C948B000C948B000C948B006C
:100010000C948B000C948B000C948B000C948B0034
:100020000C948B000C948B000C948B000C948B0024
:100030000C948B000C948B000C948B000C948B0014
:100040000C949B060C948B000C9403040C945104A8
:100050000C948B000C948B000C948B000C948B00F4
:100060000C948B000C948B000000000024002700EF
:100070002A0000000000250028002B0000000000DE
:1000800023002600290004040404040404040202DA
:100090000202020203030303030301020408102007
:1000A0004080010204081020010204081020000012
:1000B0000007000201000003040600000000000029
:1000C0000000DC00BD0511241FBECFEFD8E0DEBF6D
:1000D000CDBF11E0A0E0B1E0E6EAFEE002C005908D
:1000E0000D92A435B107D9F712E0A4E5B1E001C043
:1000F0001D92AC3DB107E1F710E0C6ECD0E004C0C2
:100100002297FE010E944207C23CD107C9F70E9414
:1001100013060C9451070C940000FB01DC014150C4
:10012000504030F08D910190801919F40020B9F7FA
:10013000881B990B0895FB01DC014150504048F0A9
:1001400001900D920020C9F701C01D92415050400E
:10015000E0F70895009731F4DA018D919C910097B2
:1001600009F40EC0DC01FB013D912191222319F01D
:100170003217C9F3FACF332331F4DA011D921C92FE
:100180008827992708951197AF93BF93FB013D915D
:100190002191321771F4332321F48827992711977D
:1001A00002C01E921196FA01A193B0839F918F9184
:1001B0000895222369F7EACF84E591E00E9437038E
:1001C00008951F93162F82309105A9F08330910571
:1001D0001CF4019769F506C083309105A9F00497D6
:1001E00039F51BC080913B010E94AE0388E292E08A
:1001F00060E070E01AC080913D010E94AE0388E289
:1002000092E061E070E011C080913F010E94AE0376
:1002100088E292E062E070E008C0809141010E94B3
:10022000AE0388E292E063E070E0412F0E94630336
:100230001F91089584E591E00E947E02089581E077
:1002400090E061E00E94E10082E090E061E00E94C5
:10025000E10083E090E061E00E94E10084E090E052
:1002600061E00E94E10081EB92E060E071E00E94B9
:100270008806089581E090E060E00E94E10082E05D
:1002800090E060E00E94E10083E090E060E00E9486
:10029000E10084E090E060E00E94E10081EB92E008
:1002A00060E071E00E948806089584E090E061E0DB
:1002B0000E94E10081EB92E060E071E00E9488061C
:1002C000089584E090E060E00E94E10081EB92E01C
:1002D00060E071E00E948806089583E090E061E0AC
:1002E0000E94E10081EB92E060E071E00E948806EC
:1002F000089583E090E060E00E94E10081EB92E0ED
:1003000060E071E00E948806089582E090E061E07C
:100310000E94E10081EB92E060E071E00E948806BB
:10032000089582E090E060E00E94E10081EB92E0BD
:1003300060E071E00E948806089581E090E061E04D
:100340000E94E10081EB92E060E071E00E9488068B
:10035000089581E090E060E00E94E10081EB92E08E
:1003600060E071E00E94880608950F931F938091CA
:100370003B0161E00E946F0380913D0161E00E94BA
:100380006F0380913F0161E00E946F038091410102
:1003900061E00E946F0308E212E0C80160E070E0D3
:1003A0000E945C03682F81E090E00E94E100C80198
:1003B00061E070E00E945C03682F82E090E00E94A0
:1003C000E100C80162E070E00E945C03682F83E0F6
:1003D00090E00E94E100C80163E070E00E945C03CD
:1003E000682F84E090E00E94E10081EB92E040E819
:1003F00055E260E070E00E948C0404E511E0C80161
:1004000063E071E049EA51E00E944802C80168E0F7
:1004100071E04DE951E00E944802C8016DE071E0D1
:1004200041E951E00E944802C80162E171E045E8FB
:1004300051E00E944802C80167E171E049E751E0DC
:100440000E944802C8016CE171E04DE651E00E9453
:100450004802C80161E271E041E651E00E944802B1
:10046000C80166E271E045E551E00E944802C8011A
:100470006BE271E04AE351E00E944802C80164E384
:1004800071E04FE151E00E9448021F910F910895E1
:100490000F931F93CF93DF93EC018A018A8D9B8D7D
:1004A0008A30910534F5880F991F9C0143E0220F93
:1004B000331F4A95E1F7820F931F4C968C0F9D1FB7
:1004C00040E150E00E949B00EA8DFB8DEE0FFF1F84
:1004D000CF0123E0880F991F2A95E1F7E80FF91F54
:1004E000EC0FFD1F15A704A78A8D9B8D01969B8F8E
:1004F0008A8FDF91CF911F910F9108952F923F9294
:100500004F925F926F927F928F929F92AF92BF9223
:10051000CF92DF92EF92FF920F931F93CF93DF93CF
:10052000EC011C010894211C311CA3E14A2E512C22
:10053000480E591EF8E16F2E712C680E791EE0ED01
:100540008E2E912C880E991E6FC081EB92E00E9436
:10055000440588839D89891709F04CC01A8A198A35
:10056000C101B201A3010E94AA006C019F8B8E8B76
:10057000009709F469C0AA8CBB8CEE24FF242CC020
:10058000C701880F991F8C0163E0000F111F6A9546
:10059000E1F7080F191FB801645E7F4F6C0F7D1FD4
:1005A000C60140E150E00E948D00009791F4F801EF
:1005B000EC0FFD1F04A4F5A5E02D099581E090E066
:1005C000FE01E80FF91F1082019681319105C1F7F4
:1005D0000FC00894E11CF11CEA14FB048CF22DC03E
:1005E000FE01E80FF91F1082019681319105C1F7D4
:1005F0001A8A198A1881812F992787FD90950E9460
:100600004807892B89F089899A89FE01E80FF91F2B
:10061000118301969A8B898BFE01E80FF91F1182D5
:10062000409714F01A8A198A81EB92E00E94130510
:10063000181619060CF489CF07C0D401ED91FC916E
:10064000099581E090E0CCCFDF91CF911F910F9180
:10065000FF90EF90DF90CF90BF90AF909F908F90E2
:100660007F906F905F904F903F902F900895DC01A6
:10067000AE52BF4F11961C921E92A25DB04080E216
:1006800090E054969C938E9353978DE055968C935F
:1006900055975B961C921E925A9781E090E0FD015F
:1006A000E80FF91F1082019681319105C1F752962A
:1006B0001C921E9251970895F999FECF72BD61BDAB
:1006C000F89A80B50895F999FECF1FBA72BD61BD41
:1006D00040BD0FB6F894FA9AF99A0FBE0895CF93D9
:1006E000DF93482F50E0CA0186569F4FFC0134919A
:1006F0004A575F4FFA018491882369F190E0880F8F
:10070000991FFC01E859FF4FA591B491FC01EE58E7
:10071000FF4FC591D491662351F42FB7F8948C9173
:10072000932F909589238C93888189230BC0623005
:1007300061F42FB7F8948C91932F909589238C9323
:100740008881832B88832FBF06C09FB7F8948C9134
:10075000832B8C939FBFDF91CF910895482F50E05A
:10076000CA0182559F4FFC012491CA0186569F4FB2
:10077000FC0194914A575F4FFA013491332309F4F5
:1007800040C0222351F1233071F0243028F421306D
:10079000A1F0223011F514C02630B1F02730C1F09D
:1007A0002430D9F404C0809180008F7703C08091F9
:1007B00080008F7D8093800010C084B58F7702C049
:1007C00084B58F7D84BD09C08091B0008F7703C050
:1007D0008091B0008F7D8093B000E32FF0E0EE0FAA
:1007E000FF1FEE58FF4FA591B4912FB7F8946623E1
:1007F00021F48C919095892302C08C91892B8C9344
:100800002FBF089508951F920F920FB60F921124D3
:100810002F933F934F938F939F93EF93FF938091E9
:10082000C00082FD1DC04091C60020916902309138
:100830006A022F5F3F4F2F73307080916B0290914F
:100840006C022817390771F0E0916902F0916A0291
:10085000E75DFD4F408330936A022093690202C036
:100860008091C600FF91EF919F918F914F913F91A1
:100870002F910F900FBE0F901F901895E091BD0221
:10088000F091BE02E05CFF4F819191912081318116
:10089000821B930B8F739070892B11F00E940204BE
:1008A00008951F920F920FB60F9211242F933F932A
:1008B0008F939F93EF93FF932091AD023091AE02FF
:1008C0008091AF029091B0022817390731F48091DE
:1008D000C1008F7D8093C10014C0E091AF02F09100
:1008E000B002E359FD4F20818091AF029091B00298
:1008F00001968F7390709093B0028093AF02209313
:10090000C600FF91EF919F918F913F912F910F9092
:100910000FBE0F901F901895AF92BF92DF92EF928B
:10092000FF920F931F93CF93DF93EC017A018B011A
:10093000DD24403081EE580780E0680780E07807CA
:1009400011F0DD24D39491E0A92EB12CEC89FD891E
:10095000DD2069F0C50108A002C0880F991F0A9424
:10096000E2F7808360E079E08DE390E005C01082DB
:1009700060E874E88EE190E0A80197010E941E07EC
:100980002150304040405040569547953795279527
:1009900080E12030380720F0DD2011F0DD24D6CFB3
:1009A000E889F9893083EA89FB89208319A2EE89D5
:1009B000FF89408121E030E0C9010C8C02C0880F22
:1009C000991F0A94E2F7482B4083EE89FF89408102
:1009D000C9010D8C02C0880F991F0A94E2F7482BB9
:1009E0004083EE89FF894081C9010E8C02C0880FC7
:1009F000991F0A94E2F7482B4083EE89FF89808192
:100A00000F8C02C0220F331F0A94E2F7209528238F
:100A10002083DF91CF911F910F91FF90EF90DF9096
:100A2000BF90AF900895DC011C96ED91FC911D974D
:100A3000E05CFF4F2191319180819181281B390B1E
:100A40002F733070C9010895DC011C96ED91FC9163
:100A50001D97E05CFF4F20813181E054F040DF01C1
:100A6000AE5BBF4F8D919C9111972817390719F4F0
:100A70002FEF3FEF07C08D919C91E80FF91F808108
:100A8000282F30E0C9010895DC011C96ED91FC91FE
:100A90001D97E05CFF4F20813181E054F040DF0181
:100AA000AE5BBF4F8D919C9111972817390719F4B0
:100AB0002FEF3FEF10C08D919C911197E80FF91F18
:100AC00020818D919C91119701968F739070119652
:100AD0009C938E9330E0C9010895DC0191968C912E
:100AE0009197882339F05496ED91FC915597808128
:100AF00086FFF9CF91961C920895CF93DF93EC0176
:100B0000EE85FF85E05CFF4F20813181E054F040AD
:100B10002F5F3F4F2F733070DF01AE5BBF4F8D9162
:100B20009C91119728173907D1F3E05CFF4F808122
:100B30009181E054F040E80FF91F6083EE85FF8556
:100B4000E05CFF4F31832083EE89FF89208181E0C3
:100B500090E00F8C02C0880F991F0A94E2F7282BAF
:100B6000208381E089A3EC89FD8980818064808372
:100B700081E090E0DF91CF9108951092B40210923D
:100B8000B30288EE93E0A0E0B0E08093B5029093CA
:100B9000B602A093B702B093B80287E491E09093B5
:100BA000B2028093B10289E292E09093BE028093F8
:100BB000BD028DE692E09093C0028093BF0285EC67
:100BC00090E09093C2028093C10284EC90E09093F5
:100BD000C4028093C30280EC90E09093C60280939D
:100BE000C50281EC90E09093C8028093C70282EC2A
:100BF00090E09093CA028093C90286EC90E09093B3
:100C0000CC028093CB0284E08093CD0283E080937A
:100C1000CE0287E08093CF0285E08093D00281E00E
:100C20008093D1020895CF93DF930E94E3060E9440
:100C3000B501CEE3D4E00E941A012097E1F30E94AF
:100C40003E04F9CFCF92DF92EF92FF920F931F9362
:100C5000CF93DF937C016B018A01C0E0D0E00FC02D
:100C6000D6016D916D01D701ED91FC910190F0815C
:100C7000E02DC7010995C80FD91F0150104001157B
:100C8000110571F7CE01DF91CF911F910F91FF9068
:100C9000EF90DF90CF900895EF92FF920F931F9304
:100CA0008C01DC01ED91FC910190F081E02D6DE073
:100CB00009957C01D801ED91FC910190F081E02D26
:100CC000C8016AE009959C012E0D3F1DC9011F91C5
:100CD0000F91FF90EF900895CF93DF93EC01611592
:100CE000710519F420E030E00FC0DB010D90002009
:100CF000E9F71197A61BB70BE881F9810280F38110
:100D0000E02DAD0109959C01C901DF91CF910895B6
:100D1000EF92FF920F931F937C010E946C068C014F
:100D2000C7010E944C06080F191FC8011F910F919F
:100D3000FF90EF9008951F920F920FB60F9211241B
:100D40002F933F938F939F93AF93BF938091D7023D
:100D50009091D802A091D902B091DA023091DB02D1
:100D60000196A11DB11D232F2D5F2D3720F02D578A
:100D70000196A11DB11D2093DB028093D7029093B1
:100D8000D802A093D902B093DA028091D302909155
:100D9000D402A091D502B091D6020196A11DB11D39
:100DA0008093D3029093D402A093D502B093D6023D
:100DB000BF91AF919F918F913F912F910F900FBE57
:100DC0000F901F901895789484B5826084BD84B587
:100DD000816084BD85B5826085BD85B5816085BD36
:100DE000EEE6F0E0808181608083E1E8F0E010824F
:100DF000808182608083808181608083E0E8F0E090
:100E0000808181608083E1EBF0E080818460808379
:100E1000E0EBF0E0808181608083EAE7F0E08081B0
:100E20008460808380818260808380818160808310
:100E30008081806880831092C1000895A1E21A2EFB
:100E4000AA1BBB1BFD010DC0AA1FBB1FEE1FFF1F6E
:100E5000A217B307E407F50720F0A21BB30BE40BBE
:100E6000F50B661F771F881F991F1A9469F7609505
:100E70007095809590959B01AC01BD01CF010895BF
:100E8000EE0FFF1F0590F491E02D0994803209F0D8
:100E9000911104C080528F55E0F708959927882753
:060EA0000895F894FFCF55
:100EA6004F4B0052313D300052313D310052323D00
:100EB600300052323D310052333D300052333D3125
:100EC6000052343D300052343D3100434C454152CE
:100ED600414C4C00534554414C4C0004000500065F
:100EE600000700000000007D0522061305440524C6
:040EF600056D050081
:00000001FF
